{
  "contractName": "InvestmentContract",
  "abi": [
    {
      "inputs": [],
      "stateMutability": "nonpayable",
      "type": "constructor"
    },
    {
      "inputs": [
        {
          "internalType": "uint256",
          "name": "",
          "type": "uint256"
        }
      ],
      "name": "investments",
      "outputs": [
        {
          "internalType": "string",
          "name": "fund",
          "type": "string"
        },
        {
          "internalType": "string",
          "name": "investmentType",
          "type": "string"
        }
      ],
      "stateMutability": "view",
      "type": "function",
      "constant": true
    },
    {
      "inputs": [],
      "name": "name",
      "outputs": [
        {
          "internalType": "string",
          "name": "",
          "type": "string"
        }
      ],
      "stateMutability": "view",
      "type": "function",
      "constant": true
    },
    {
      "inputs": [
        {
          "internalType": "uint256",
          "name": "index",
          "type": "uint256"
        }
      ],
      "name": "getInvestment",
      "outputs": [
        {
          "internalType": "string",
          "name": "",
          "type": "string"
        },
        {
          "internalType": "string",
          "name": "",
          "type": "string"
        }
      ],
      "stateMutability": "view",
      "type": "function",
      "constant": true
    },
    {
      "inputs": [],
      "name": "getInvestmentCount",
      "outputs": [
        {
          "internalType": "uint256",
          "name": "",
          "type": "uint256"
        }
      ],
      "stateMutability": "view",
      "type": "function",
      "constant": true
    }
  ],
  "bytecode": "0x60806040526040518060400160405280600981526020017f70726979616e73687500000000000000000000000000000000000000000000008152506000908051906020019061004f9291906103fa565b5034801561005c57600080fd5b50600160405180604001604052806040518060400160405280600d81526020017f35332c3634322c3633302e30350000000000000000000000000000000000000081525081526020016040518060400160405280601781526020017f41737365747320556e646572204d616e6167656d656e74000000000000000000815250815250908060018154018082558091505060019003906000526020600020906002020160009091909190915060008201518160000190805190602001906101239291906103fa565b5060208201518160010190805190602001906101409291906103fa565b505050600160405180604001604052806040518060400160405280600d81526020017f34372c3339302c3639362e33350000000000000000000000000000000000000081525081526020016040518060400160405280601881526020017f446973747269627574656420746f20496e766573746f72730000000000000000815250815250908060018154018082558091505060019003906000526020600020906002020160009091909190915060008201518160000190805190602001906102099291906103fa565b5060208201518160010190805190602001906102269291906103fa565b505050600160405180604001604052806040518060400160405280600681526020017f31342e393125000000000000000000000000000000000000000000000000000081525081526020016040518060400160405280601581526020017f41766572616765206d6f6e74686c79207969656c640000000000000000000000815250815250908060018154018082558091505060019003906000526020600020906002020160009091909190915060008201518160000190805190602001906102ef9291906103fa565b50602082015181600101908051906020019061030c9291906103fa565b505050600160405180604001604052806040518060400160405280600381526020017f393636000000000000000000000000000000000000000000000000000000000081525081526020016040518060400160405280600c81526020017f4163746976652055736572730000000000000000000000000000000000000000815250815250908060018154018082558091505060019003906000526020600020906002020160009091909190915060008201518160000190805190602001906103d59291906103fa565b5060208201518160010190805190602001906103f29291906103fa565b5050506104fd565b828054610406906104cc565b90600052602060002090601f016020900481019282610428576000855561046f565b82601f1061044157805160ff191683800117855561046f565b8280016001018555821561046f579182015b8281111561046e578251825591602001919060010190610453565b5b50905061047c9190610480565b5090565b5b80821115610499576000816000905550600101610481565b5090565b7f4e487b7100000000000000000000000000000000000000000000000000000000600052602260045260246000fd5b600060028204905060018216806104e457607f821691505b6020821081036104f7576104f661049d565b5b50919050565b6106838061050c6000396000f3fe608060405234801561001057600080fd5b506004361061004c5760003560e01c806306fdde031461005157806322ae634f1461006f578063b8d84697146100a0578063fd345c8a146100be575b600080fd5b6100596100ef565b60405161006691906104d3565b60405180910390f35b61008960048036038101906100849190610530565b61017d565b60405161009792919061055d565b60405180910390f35b6100a86102e9565b6040516100b591906105a3565b60405180910390f35b6100d860048036038101906100d39190610530565b6102f6565b6040516100e692919061055d565b60405180910390f35b600080546100fc906105ed565b80601f0160208091040260200160405190810160405280929190818152602001828054610128906105ed565b80156101755780601f1061014a57610100808354040283529160200191610175565b820191906000526020600020905b81548152906001019060200180831161015857829003601f168201915b505050505081565b6060806000600184815481106101965761019561061e565b5b90600052602060002090600202016040518060400160405290816000820180546101bf906105ed565b80601f01602080910402602001604051908101604052809291908181526020018280546101eb906105ed565b80156102385780601f1061020d57610100808354040283529160200191610238565b820191906000526020600020905b81548152906001019060200180831161021b57829003601f168201915b50505050508152602001600182018054610251906105ed565b80601f016020809104026020016040519081016040528092919081815260200182805461027d906105ed565b80156102ca5780601f1061029f576101008083540402835291602001916102ca565b820191906000526020600020905b8154815290600101906020018083116102ad57829003601f168201915b5050505050815250509050806000015181602001519250925050915091565b6000600180549050905090565b6001818154811061030657600080fd5b9060005260206000209060020201600091509050806000018054610329906105ed565b80601f0160208091040260200160405190810160405280929190818152602001828054610355906105ed565b80156103a25780601f10610377576101008083540402835291602001916103a2565b820191906000526020600020905b81548152906001019060200180831161038557829003601f168201915b5050505050908060010180546103b7906105ed565b80601f01602080910402602001604051908101604052809291908181526020018280546103e3906105ed565b80156104305780601f1061040557610100808354040283529160200191610430565b820191906000526020600020905b81548152906001019060200180831161041357829003601f168201915b5050505050905082565b600081519050919050565b600082825260208201905092915050565b60005b83811015610474578082015181840152602081019050610459565b83811115610483576000848401525b50505050565b6000601f19601f8301169050919050565b60006104a58261043a565b6104af8185610445565b93506104bf818560208601610456565b6104c881610489565b840191505092915050565b600060208201905081810360008301526104ed818461049a565b905092915050565b600080fd5b6000819050919050565b61050d816104fa565b811461051857600080fd5b50565b60008135905061052a81610504565b92915050565b600060208284031215610546576105456104f5565b5b60006105548482850161051b565b91505092915050565b60006040820190508181036000830152610577818561049a565b9050818103602083015261058b818461049a565b90509392505050565b61059d816104fa565b82525050565b60006020820190506105b86000830184610594565b92915050565b7f4e487b7100000000000000000000000000000000000000000000000000000000600052602260045260246000fd5b6000600282049050600182168061060557607f821691505b602082108103610618576106176105be565b5b50919050565b7f4e487b7100000000000000000000000000000000000000000000000000000000600052603260045260246000fdfea2646970667358221220d9e980dc41cba2d73611020b0ab4c318f5975fe69485a7478bbe3418f90dbddf64736f6c634300080d0033",
  "immutableReferences": {},
  "source": "// SPDX-License-Identifier: MIT\r\npragma solidity ^0.8.0;\r\n\r\ncontract InvestmentContract {\r\n     \r\n    struct InvestmentData {\r\n        string  fund;\r\n        string  investmentType;\r\n    }\r\n\r\n    string public name = \"priyanshu\";\r\n\r\n    InvestmentData[] public investments;\r\n\r\n    constructor() {\r\n        investments.push(InvestmentData('53,642,630.05', 'Assets Under Management'));\r\n        investments.push(InvestmentData('47,390,696.35', 'Distributed to Investors'));\r\n        investments.push(InvestmentData('14.91%', 'Average monthly yield'));\r\n        investments.push(InvestmentData('966', 'Active Users'));\r\n    }\r\n\r\n    function getInvestment(uint index) public view returns (string memory, string memory) {\r\n        InvestmentData memory investment = investments[index];\r\n        return (investment.fund, investment.investmentType);\r\n    }\r\n\r\n    function getInvestmentCount() public view returns (uint) {\r\n        return investments.length;\r\n    }\r\n}\r\n",
  "sourcePath": "C:\\Users\\28pri\\Desktop\\test_repo\\trading-metamask\\blockchain\\contracts\\InvestmentContract.sol",
  "compiler": {
    "name": "solc",
    "version": "0.8.13+commit.abaa5c0e.Emscripten.clang"
  },
  "schemaVersion": "3.4.16",
  "updatedAt": "2024-10-09T15:38:24.854Z",
  "networkType": "ethereum",
  "devdoc": {
    "kind": "dev",
    "methods": {},
    "version": 1
  },
  "userdoc": {
    "kind": "user",
    "methods": {},
    "version": 1
  }
}