{
  "contractName": "InvestmentPlatform",
  "abi": [
    {
      "inputs": [],
      "stateMutability": "nonpayable",
      "type": "constructor"
    },
    {
      "anonymous": false,
      "inputs": [
        {
          "indexed": true,
          "internalType": "address",
          "name": "user",
          "type": "address"
        },
        {
          "indexed": false,
          "internalType": "uint256",
          "name": "amount",
          "type": "uint256"
        }
      ],
      "name": "DepositMade",
      "type": "event"
    },
    {
      "anonymous": false,
      "inputs": [
        {
          "indexed": true,
          "internalType": "address",
          "name": "previousOwner",
          "type": "address"
        },
        {
          "indexed": true,
          "internalType": "address",
          "name": "newOwner",
          "type": "address"
        }
      ],
      "name": "OwnershipTransferred",
      "type": "event"
    },
    {
      "anonymous": false,
      "inputs": [
        {
          "indexed": true,
          "internalType": "address",
          "name": "user",
          "type": "address"
        },
        {
          "indexed": false,
          "internalType": "uint256",
          "name": "amount",
          "type": "uint256"
        }
      ],
      "name": "WithdrawalProcessed",
      "type": "event"
    },
    {
      "anonymous": false,
      "inputs": [
        {
          "indexed": true,
          "internalType": "address",
          "name": "user",
          "type": "address"
        },
        {
          "indexed": false,
          "internalType": "uint256",
          "name": "amount",
          "type": "uint256"
        }
      ],
      "name": "WithdrawalRequested",
      "type": "event"
    },
    {
      "inputs": [],
      "name": "depositWindowEnd",
      "outputs": [
        {
          "internalType": "uint256",
          "name": "",
          "type": "uint256"
        }
      ],
      "stateMutability": "view",
      "type": "function"
    },
    {
      "inputs": [],
      "name": "depositWindowStart",
      "outputs": [
        {
          "internalType": "uint256",
          "name": "",
          "type": "uint256"
        }
      ],
      "stateMutability": "view",
      "type": "function"
    },
    {
      "inputs": [
        {
          "internalType": "address",
          "name": "",
          "type": "address"
        },
        {
          "internalType": "uint256",
          "name": "",
          "type": "uint256"
        }
      ],
      "name": "deposits",
      "outputs": [
        {
          "internalType": "uint256",
          "name": "amount",
          "type": "uint256"
        },
        {
          "internalType": "uint256",
          "name": "timestamp",
          "type": "uint256"
        }
      ],
      "stateMutability": "view",
      "type": "function"
    },
    {
      "inputs": [],
      "name": "owner",
      "outputs": [
        {
          "internalType": "address",
          "name": "",
          "type": "address"
        }
      ],
      "stateMutability": "view",
      "type": "function"
    },
    {
      "inputs": [],
      "name": "totalDeposits",
      "outputs": [
        {
          "internalType": "uint256",
          "name": "",
          "type": "uint256"
        }
      ],
      "stateMutability": "view",
      "type": "function"
    },
    {
      "inputs": [],
      "name": "totalProfit",
      "outputs": [
        {
          "internalType": "uint256",
          "name": "",
          "type": "uint256"
        }
      ],
      "stateMutability": "view",
      "type": "function"
    },
    {
      "inputs": [],
      "name": "totalWithdrawals",
      "outputs": [
        {
          "internalType": "uint256",
          "name": "",
          "type": "uint256"
        }
      ],
      "stateMutability": "view",
      "type": "function"
    },
    {
      "inputs": [
        {
          "internalType": "address",
          "name": "",
          "type": "address"
        },
        {
          "internalType": "uint256",
          "name": "",
          "type": "uint256"
        }
      ],
      "name": "withdrawalRequests",
      "outputs": [
        {
          "internalType": "uint256",
          "name": "amount",
          "type": "uint256"
        },
        {
          "internalType": "uint256",
          "name": "timestamp",
          "type": "uint256"
        },
        {
          "internalType": "bool",
          "name": "processed",
          "type": "bool"
        }
      ],
      "stateMutability": "view",
      "type": "function"
    },
    {
      "inputs": [
        {
          "internalType": "address",
          "name": "newOwner",
          "type": "address"
        }
      ],
      "name": "transferOwnership",
      "outputs": [],
      "stateMutability": "nonpayable",
      "type": "function"
    },
    {
      "inputs": [],
      "name": "deposit",
      "outputs": [],
      "stateMutability": "payable",
      "type": "function"
    },
    {
      "inputs": [
        {
          "internalType": "uint256",
          "name": "amount",
          "type": "uint256"
        }
      ],
      "name": "requestWithdrawal",
      "outputs": [],
      "stateMutability": "nonpayable",
      "type": "function"
    },
    {
      "inputs": [
        {
          "internalType": "address",
          "name": "user",
          "type": "address"
        },
        {
          "internalType": "uint256",
          "name": "index",
          "type": "uint256"
        }
      ],
      "name": "processWithdrawal",
      "outputs": [],
      "stateMutability": "nonpayable",
      "type": "function"
    },
    {
      "inputs": [],
      "name": "distributeProfit",
      "outputs": [],
      "stateMutability": "payable",
      "type": "function"
    },
    {
      "inputs": [
        {
          "internalType": "address",
          "name": "user",
          "type": "address"
        }
      ],
      "name": "getBalance",
      "outputs": [
        {
          "internalType": "uint256",
          "name": "",
          "type": "uint256"
        }
      ],
      "stateMutability": "view",
      "type": "function"
    },
    {
      "inputs": [
        {
          "internalType": "address",
          "name": "user",
          "type": "address"
        }
      ],
      "name": "getDepositHistory",
      "outputs": [
        {
          "components": [
            {
              "internalType": "uint256",
              "name": "amount",
              "type": "uint256"
            },
            {
              "internalType": "uint256",
              "name": "timestamp",
              "type": "uint256"
            }
          ],
          "internalType": "struct InvestmentPlatform.Deposit[]",
          "name": "",
          "type": "tuple[]"
        }
      ],
      "stateMutability": "view",
      "type": "function"
    },
    {
      "inputs": [
        {
          "internalType": "address",
          "name": "user",
          "type": "address"
        }
      ],
      "name": "getWithdrawalHistory",
      "outputs": [
        {
          "components": [
            {
              "internalType": "uint256",
              "name": "amount",
              "type": "uint256"
            },
            {
              "internalType": "uint256",
              "name": "timestamp",
              "type": "uint256"
            },
            {
              "internalType": "bool",
              "name": "processed",
              "type": "bool"
            }
          ],
          "internalType": "struct InvestmentPlatform.WithdrawalRequest[]",
          "name": "",
          "type": "tuple[]"
        }
      ],
      "stateMutability": "view",
      "type": "function"
    }
  ],
  "bytecode": "0x60806040526018600655601f60075534801561001a57600080fd5b50336000806101000a81548173ffffffffffffffffffffffffffffffffffffffff021916908373ffffffffffffffffffffffffffffffffffffffff16021790555060008054906101000a900473ffffffffffffffffffffffffffffffffffffffff1673ffffffffffffffffffffffffffffffffffffffff16600073ffffffffffffffffffffffffffffffffffffffff167f8be0079c531659141344cd1fd0a4f28419497f9722a3daafe3b4186f6b6457e060405160405180910390a3611a7d806100e56000396000f3fe6080604052600436106100f35760003560e01c80638a160b541161008a578063d494453f11610059578063d494453f146102ee578063d6d6817714610319578063f2fde38b14610357578063f8b2cb4f14610380576100f3565b80638a160b54146102865780638da5cb5b146102905780639ee679e8146102bb578063d0e30db0146102e4576100f3565b806360464627116100c657806360464627146101dc5780637d882097146102075780638260910c14610232578063860015191461025b576100f3565b806312d4ddf8146100f85780633114740e146101235780634e5a2328146101605780635a33c3da1461019f575b600080fd5b34801561010457600080fd5b5061010d6103bd565b60405161011a91906110af565b60405180910390f35b34801561012f57600080fd5b5061014a6004803603810190610145919061112d565b6103c3565b6040516101579190611275565b60405180910390f35b34801561016c57600080fd5b50610187600480360381019061018291906112c3565b610490565b60405161019693929190611312565b60405180910390f35b3480156101ab57600080fd5b506101c660048036038101906101c1919061112d565b6104e4565b6040516101d39190611427565b60405180910390f35b3480156101e857600080fd5b506101f1610596565b6040516101fe91906110af565b60405180910390f35b34801561021357600080fd5b5061021c61059c565b60405161022991906110af565b60405180910390f35b34801561023e57600080fd5b50610259600480360381019061025491906112c3565b6105a2565b005b34801561026757600080fd5b50610270610808565b60405161027d91906110af565b60405180910390f35b61028e61080e565b005b34801561029c57600080fd5b506102a56108fa565b6040516102b29190611458565b60405180910390f35b3480156102c757600080fd5b506102e260048036038101906102dd9190611473565b61091e565b005b6102ec610af3565b005b3480156102fa57600080fd5b50610303610c6e565b60405161031091906110af565b60405180910390f35b34801561032557600080fd5b50610340600480360381019061033b91906112c3565b610c74565b60405161034e9291906114a0565b60405180910390f35b34801561036357600080fd5b5061037e6004803603810190610379919061112d565b610cb5565b005b34801561038c57600080fd5b506103a760048036038101906103a2919061112d565b610e6f565b6040516103b491906110af565b60405180910390f35b60075481565b6060600260008373ffffffffffffffffffffffffffffffffffffffff1673ffffffffffffffffffffffffffffffffffffffff168152602001908152602001600020805480602002602001604051908101604052809291908181526020016000905b82821015610485578382906000526020600020906003020160405180606001604052908160008201548152602001600182015481526020016002820160009054906101000a900460ff16151515158152505081526020019060010190610424565b505050509050919050565b600260205281600052604060002081815481106104ac57600080fd5b9060005260206000209060030201600091509150508060000154908060010154908060020160009054906101000a900460ff16905083565b6060600160008373ffffffffffffffffffffffffffffffffffffffff1673ffffffffffffffffffffffffffffffffffffffff168152602001908152602001600020805480602002602001604051908101604052809291908181526020016000905b8282101561058b57838290600052602060002090600202016040518060400160405290816000820154815260200160018201548152505081526020019060010190610545565b505050509050919050565b60045481565b60035481565b60008054906101000a900473ffffffffffffffffffffffffffffffffffffffff1673ffffffffffffffffffffffffffffffffffffffff163373ffffffffffffffffffffffffffffffffffffffff1614610630576040517f08c379a000000000000000000000000000000000000000000000000000000000815260040161062790611526565b60405180910390fd5b6000600260008473ffffffffffffffffffffffffffffffffffffffff1673ffffffffffffffffffffffffffffffffffffffff168152602001908152602001600020828154811061068357610682611546565b5b906000526020600020906003020190508060020160009054906101000a900460ff16156106e5576040517f08c379a00000000000000000000000000000000000000000000000000000000081526004016106dc906115c1565b60405180910390fd5b806000015447101561072c576040517f08c379a00000000000000000000000000000000000000000000000000000000081526004016107239061162d565b60405180910390fd5b60018160020160006101000a81548160ff02191690831515021790555080600001546004600082825461075f919061167c565b925050819055508273ffffffffffffffffffffffffffffffffffffffff166108fc82600001549081150290604051600060405180830381858888f193505050501580156107b0573d6000803e3d6000fd5b508273ffffffffffffffffffffffffffffffffffffffff167f5abb0fc89def2ee3226cc48f5621ee8e2b45f6dcc7898d2bdb5d480533c32bc082600001546040516107fb91906110af565b60405180910390a2505050565b60055481565b60008054906101000a900473ffffffffffffffffffffffffffffffffffffffff1673ffffffffffffffffffffffffffffffffffffffff163373ffffffffffffffffffffffffffffffffffffffff161461089c576040517f08c379a000000000000000000000000000000000000000000000000000000000815260040161089390611526565b60405180910390fd5b600034116108df576040517f08c379a00000000000000000000000000000000000000000000000000000000081526004016108d69061171e565b60405180910390fd5b34600560008282546108f1919061167c565b92505081905550565b60008054906101000a900473ffffffffffffffffffffffffffffffffffffffff1681565b60006001601e6201518042610933919061176d565b61093d919061179e565b610947919061167c565b90506001811015801561095b575060058111155b61099a576040517f08c379a000000000000000000000000000000000000000000000000000000000815260040161099190611841565b60405180910390fd5b816109a433610e6f565b10156109e5576040517f08c379a00000000000000000000000000000000000000000000000000000000081526004016109dc906118ad565b60405180910390fd5b600260003373ffffffffffffffffffffffffffffffffffffffff1673ffffffffffffffffffffffffffffffffffffffff1681526020019081526020016000206040518060600160405280848152602001428152602001600015158152509080600181540180825580915050600190039060005260206000209060030201600090919091909150600082015181600001556020820151816001015560408201518160020160006101000a81548160ff02191690831515021790555050503373ffffffffffffffffffffffffffffffffffffffff167fe670e4e82118d22a1f9ee18920455ebc958bae26a90a05d31d3378788b1b0e4483604051610ae791906110af565b60405180910390a25050565b60006001601e6201518042610b08919061176d565b610b12919061179e565b610b1c919061167c565b90506006548110158015610b3257506007548111155b610b71576040517f08c379a0000000000000000000000000000000000000000000000000000000008152600401610b689061193f565b60405180910390fd5b600160003373ffffffffffffffffffffffffffffffffffffffff1673ffffffffffffffffffffffffffffffffffffffff1681526020019081526020016000206040518060400160405280348152602001428152509080600181540180825580915050600190039060005260206000209060020201600090919091909150600082015181600001556020820151816001015550503460036000828254610c16919061167c565b925050819055503373ffffffffffffffffffffffffffffffffffffffff167fd15c9547ea5c06670c0010ce19bc32d54682a4b3801ece7f3ab0c3f17106b4bb34604051610c6391906110af565b60405180910390a250565b60065481565b60016020528160005260406000208181548110610c9057600080fd5b9060005260206000209060020201600091509150508060000154908060010154905082565b60008054906101000a900473ffffffffffffffffffffffffffffffffffffffff1673ffffffffffffffffffffffffffffffffffffffff163373ffffffffffffffffffffffffffffffffffffffff1614610d43576040517f08c379a0000000000000000000000000000000000000000000000000000000008152600401610d3a90611526565b60405180910390fd5b600073ffffffffffffffffffffffffffffffffffffffff168173ffffffffffffffffffffffffffffffffffffffff1603610db2576040517f08c379a0000000000000000000000000000000000000000000000000000000008152600401610da9906119ab565b60405180910390fd5b8073ffffffffffffffffffffffffffffffffffffffff1660008054906101000a900473ffffffffffffffffffffffffffffffffffffffff1673ffffffffffffffffffffffffffffffffffffffff167f8be0079c531659141344cd1fd0a4f28419497f9722a3daafe3b4186f6b6457e060405160405180910390a3806000806101000a81548173ffffffffffffffffffffffffffffffffffffffff021916908373ffffffffffffffffffffffffffffffffffffffff16021790555050565b6000806000905060005b600160008573ffffffffffffffffffffffffffffffffffffffff1673ffffffffffffffffffffffffffffffffffffffff16815260200190815260200160002080549050811015610f4657600160008573ffffffffffffffffffffffffffffffffffffffff1673ffffffffffffffffffffffffffffffffffffffff1681526020019081526020016000208181548110610f1457610f13611546565b5b90600052602060002090600202016000015482610f31919061167c565b91508080610f3e906119cb565b915050610e79565b5060005b600260008573ffffffffffffffffffffffffffffffffffffffff1673ffffffffffffffffffffffffffffffffffffffff1681526020019081526020016000208054905081101561108c57600260008573ffffffffffffffffffffffffffffffffffffffff1673ffffffffffffffffffffffffffffffffffffffff1681526020019081526020016000208181548110610fe557610fe4611546565b5b906000526020600020906003020160020160009054906101000a900460ff1661107957600260008573ffffffffffffffffffffffffffffffffffffffff1673ffffffffffffffffffffffffffffffffffffffff168152602001908152602001600020818154811061105957611058611546565b5b906000526020600020906003020160000154826110769190611a13565b91505b8080611084906119cb565b915050610f4a565b5080915050919050565b6000819050919050565b6110a981611096565b82525050565b60006020820190506110c460008301846110a0565b92915050565b600080fd5b600073ffffffffffffffffffffffffffffffffffffffff82169050919050565b60006110fa826110cf565b9050919050565b61110a816110ef565b811461111557600080fd5b50565b60008135905061112781611101565b92915050565b600060208284031215611143576111426110ca565b5b600061115184828501611118565b91505092915050565b600081519050919050565b600082825260208201905092915050565b6000819050602082019050919050565b61118f81611096565b82525050565b60008115159050919050565b6111aa81611195565b82525050565b6060820160008201516111c66000850182611186565b5060208201516111d96020850182611186565b5060408201516111ec60408501826111a1565b50505050565b60006111fe83836111b0565b60608301905092915050565b6000602082019050919050565b60006112228261115a565b61122c8185611165565b935061123783611176565b8060005b8381101561126857815161124f88826111f2565b975061125a8361120a565b92505060018101905061123b565b5085935050505092915050565b6000602082019050818103600083015261128f8184611217565b905092915050565b6112a081611096565b81146112ab57600080fd5b50565b6000813590506112bd81611297565b92915050565b600080604083850312156112da576112d96110ca565b5b60006112e885828601611118565b92505060206112f9858286016112ae565b9150509250929050565b61130c81611195565b82525050565b600060608201905061132760008301866110a0565b61133460208301856110a0565b6113416040830184611303565b949350505050565b600081519050919050565b600082825260208201905092915050565b6000819050602082019050919050565b60408201600082015161138b6000850182611186565b50602082015161139e6020850182611186565b50505050565b60006113b08383611375565b60408301905092915050565b6000602082019050919050565b60006113d482611349565b6113de8185611354565b93506113e983611365565b8060005b8381101561141a57815161140188826113a4565b975061140c836113bc565b9250506001810190506113ed565b5085935050505092915050565b6000602082019050818103600083015261144181846113c9565b905092915050565b611452816110ef565b82525050565b600060208201905061146d6000830184611449565b92915050565b600060208284031215611489576114886110ca565b5b6000611497848285016112ae565b91505092915050565b60006040820190506114b560008301856110a0565b6114c260208301846110a0565b9392505050565b600082825260208201905092915050565b7f4e6f742074686520636f6e7472616374206f776e657200000000000000000000600082015250565b60006115106016836114c9565b915061151b826114da565b602082019050919050565b6000602082019050818103600083015261153f81611503565b9050919050565b7f4e487b7100000000000000000000000000000000000000000000000000000000600052603260045260246000fd5b7f5769746864726177616c20616c72656164792070726f6365737365642e000000600082015250565b60006115ab601d836114c9565b91506115b682611575565b602082019050919050565b600060208201905081810360008301526115da8161159e565b9050919050565b7f496e73756666696369656e7420636f6e74726163742062616c616e63652e0000600082015250565b6000611617601e836114c9565b9150611622826115e1565b602082019050919050565b600060208201905081810360008301526116468161160a565b9050919050565b7f4e487b7100000000000000000000000000000000000000000000000000000000600052601160045260246000fd5b600061168782611096565b915061169283611096565b9250827fffffffffffffffffffffffffffffffffffffffffffffffffffffffffffffffff038211156116c7576116c661164d565b5b828201905092915050565b7f4e6f2070726f66697420746f20646973747269627574652e0000000000000000600082015250565b60006117086018836114c9565b9150611713826116d2565b602082019050919050565b60006020820190508181036000830152611737816116fb565b9050919050565b7f4e487b7100000000000000000000000000000000000000000000000000000000600052601260045260246000fd5b600061177882611096565b915061178383611096565b9250826117935761179261173e565b5b828204905092915050565b60006117a982611096565b91506117b483611096565b9250826117c4576117c361173e565b5b828206905092915050565b7f5769746864726177616c732063616e206f6e6c7920626520726571756573746560008201527f64206265747765656e207468652031737420616e64203574682e000000000000602082015250565b600061182b603a836114c9565b9150611836826117cf565b604082019050919050565b6000602082019050818103600083015261185a8161181e565b9050919050565b7f496e73756666696369656e742062616c616e63652e0000000000000000000000600082015250565b60006118976015836114c9565b91506118a282611861565b602082019050919050565b600060208201905081810360008301526118c68161188a565b9050919050565b7f4465706f7369747320617265206f6e6c7920616c6c6f77656420647572696e6760008201527f20746865206465706f7369742077696e646f772e000000000000000000000000602082015250565b60006119296034836114c9565b9150611934826118cd565b604082019050919050565b600060208201905081810360008301526119588161191c565b9050919050565b7f4e6577206f776e657220697320746865207a65726f2061646472657373000000600082015250565b6000611995601d836114c9565b91506119a08261195f565b602082019050919050565b600060208201905081810360008301526119c481611988565b9050919050565b60006119d682611096565b91507fffffffffffffffffffffffffffffffffffffffffffffffffffffffffffffffff8203611a0857611a0761164d565b5b600182019050919050565b6000611a1e82611096565b9150611a2983611096565b925082821015611a3c57611a3b61164d565b5b82820390509291505056fea2646970667358221220e8b3a1f7c7cc7e8d7b71555d988d9f9c20a69539e15e30f389fbc3be345d94cc64736f6c634300080d0033",
  "immutableReferences": {},
  "source": "// SPDX-License-Identifier: MIT\r\npragma solidity ^0.8.0;\r\n\r\ncontract InvestmentPlatform {\r\n    address public owner;\r\n\r\n    struct Deposit {\r\n        uint256 amount;\r\n        uint256 timestamp;\r\n    }\r\n\r\n    struct WithdrawalRequest {\r\n        uint256 amount;\r\n        uint256 timestamp;\r\n        bool processed;\r\n    }\r\n\r\n    mapping(address => Deposit[]) public deposits;\r\n    mapping(address => WithdrawalRequest[]) public withdrawalRequests;\r\n\r\n    uint256 public totalDeposits;\r\n    uint256 public totalWithdrawals;\r\n    uint256 public totalProfit;\r\n\r\n    uint256 public depositWindowStart = 24; // 24th of the month\r\n    uint256 public depositWindowEnd = 31; // End of the month\r\n\r\n    event DepositMade(address indexed user, uint256 amount);\r\n    event WithdrawalRequested(address indexed user, uint256 amount);\r\n    event WithdrawalProcessed(address indexed user, uint256 amount);\r\n    event OwnershipTransferred(address indexed previousOwner, address indexed newOwner);\r\n\r\n    modifier onlyOwner() {\r\n        require(msg.sender == owner, \"Not the contract owner\");\r\n        _;\r\n    }\r\n\r\n    modifier onlyDuringDepositWindow() {\r\n        uint256 day = (block.timestamp / 1 days) % 30 + 1;\r\n        require(\r\n            day >= depositWindowStart && day <= depositWindowEnd,\r\n            \"Deposits are only allowed during the deposit window.\"\r\n        );\r\n        _;\r\n    }\r\n\r\n    modifier onlyDuringWithdrawalWindow() {\r\n        uint256 day = (block.timestamp / 1 days) % 30 + 1;\r\n        require(\r\n            day >= 1 && day <= 5,\r\n            \"Withdrawals can only be requested between the 1st and 5th.\"\r\n        );\r\n        _;\r\n    }\r\n\r\n    constructor() {\r\n        owner = msg.sender;\r\n        emit OwnershipTransferred(address(0), owner);\r\n    }\r\n\r\n    function transferOwnership(address newOwner) public onlyOwner {\r\n        require(newOwner != address(0), \"New owner is the zero address\");\r\n        emit OwnershipTransferred(owner, newOwner);\r\n        owner = newOwner;\r\n    }\r\n\r\n    function deposit() external payable onlyDuringDepositWindow {\r\n        deposits[msg.sender].push(Deposit(msg.value, block.timestamp));\r\n        totalDeposits += msg.value;\r\n        emit DepositMade(msg.sender, msg.value);\r\n    }\r\n\r\n    function requestWithdrawal(uint256 amount) external onlyDuringWithdrawalWindow {\r\n        require(getBalance(msg.sender) >= amount, \"Insufficient balance.\");\r\n        withdrawalRequests[msg.sender].push(WithdrawalRequest(amount, block.timestamp, false));\r\n        emit WithdrawalRequested(msg.sender, amount);\r\n    }\r\n\r\n    function processWithdrawal(address user, uint256 index) external onlyOwner {\r\n        WithdrawalRequest storage request = withdrawalRequests[user][index];\r\n        require(!request.processed, \"Withdrawal already processed.\");\r\n        require(address(this).balance >= request.amount, \"Insufficient contract balance.\");\r\n\r\n        request.processed = true;\r\n        totalWithdrawals += request.amount;\r\n        payable(user).transfer(request.amount);\r\n        emit WithdrawalProcessed(user, request.amount);\r\n    }\r\n\r\n    function distributeProfit() external payable onlyOwner {\r\n        require(msg.value > 0, \"No profit to distribute.\");\r\n        totalProfit += msg.value;\r\n    }\r\n\r\n    function getBalance(address user) public view returns (uint256) {\r\n        uint256 balance = 0;\r\n        for (uint256 i = 0; i < deposits[user].length; i++) {\r\n            balance += deposits[user][i].amount;\r\n        }\r\n        for (uint256 i = 0; i < withdrawalRequests[user].length; i++) {\r\n            if (!withdrawalRequests[user][i].processed) {\r\n                balance -= withdrawalRequests[user][i].amount;\r\n            }\r\n        }\r\n        return balance;\r\n    }\r\n\r\n    function getDepositHistory(address user) public view returns (Deposit[] memory) {\r\n        return deposits[user];\r\n    }\r\n\r\n    function getWithdrawalHistory(address user) public view returns (WithdrawalRequest[] memory) {\r\n        return withdrawalRequests[user];\r\n    }\r\n}\r\n",
  "sourcePath": "C:\\Users\\28pri\\Desktop\\test_repo\\trading-metamask\\blockchain\\contracts\\MetaMask.sol",
  "compiler": {
    "name": "solc",
    "version": "0.8.13+commit.abaa5c0e.Emscripten.clang"
  },
  "schemaVersion": "3.4.16",
  "updatedAt": "2024-10-09T15:38:19.037Z",
  "devdoc": {
    "kind": "dev",
    "methods": {},
    "version": 1
  },
  "userdoc": {
    "kind": "user",
    "methods": {},
    "version": 1
  }
}